:020000040800F2
:10000000C853002029030008A93A0008A32F0008BC
:100010000D3A00083906000871440008000000008D
:100020000000000000000000000000006D02000859
:10003000C908000800000000C1020008B93B000820
:100040004303000843030008430300084303000878
:100050004303000843030008430300084303000868
:100060004303000843030008430300084303000858
:10007000F507000843030008430300084303000892
:10008000010800084303000843030008490600086C
:100090003D0600084303000843030008430300082B
:1000A0004303000843030008430300084303000818
:1000B0004303000843030008430300084303000808
:1000C00043030008430300084303000843030008F8
:1000D000430300088143000899430008B143000826
:1000E00043030008430300084303000843030008D8
:1000F00043030008430300084303000843030008C8
:1001000043030008430300084303000843030008B7
:100110004303000843030008B53C000843030008FC
:10012000430300080D0800081908000843030008ED
:100130004303000843030008430300086106000866
:100140005506000843030008430300084303000862
:10015000430300084303000843030008C9430008A1
:100160004303000843030008430300084303000857
:100170004303000843030008430300080000000095
:100180004303000843030008430300084303000837
:100190004303000843030008430300084303000827
:1001A00000000000000000004303000800F002F817
:1001B00000F04CF80AA090E8000C82448344AAF1B5
:1001C0000107DA4501D100F041F8AFF2090EBAE8B3
:1001D0000F0013F0010F18BFFB1A43F0010318477B
:1001E000F8870000188800000A4410F8014B14F04A
:1001F0000F0508BF10F8015B240908BF10F8014B78
:100200006D1E05D010F8013B6D1E01F8013BF9D1C0
:10021000641E03D0641E01F8015BFBD19142E4D35C
:10022000704700000023002400250026103A28BF54
:1002300078C1FBD8520728BF30C148BF0B60704758
:100240001FB508F068F91FBD10B510BD00F06CF9BE
:100250001146FFF7F5FF06F0B7F800F08AF903B48E
:10026000FFF7F2FF03BC00F08DF900002B4B19687B
:100270000868B0E8F04F80F30988BFF36F8F4FF044
:10028000000080F3118870470000000006480068F5
:10029000006880F3088862B661B6BFF34F8FBFF382
:1002A0006F8F00DF00BF00BF08ED00E0DFF80C003B
:1002B000016841F470010160704700BF88ED00E003
:1002C000EFF30980BFF36F8F144B1A681EF0100F05
:1002D00008BF20ED108A20E9F04F106008B44FF0FD
:1002E000500080F31188BFF34F8FBFF36F8F07F07B
:1002F00095F94FF0000080F3118808BC1968086870
:10030000B0E8F04F1EF0100F08BFB0EC108A80F379
:100310000988BFF36F8F704700BF00BFA4010020A2
:10032000EFF30580704700000948804709480047FF
:10033000FEE7FEE7FEE7FEE7FEE7FEE7FEE7FEE795
:10034000FEE7FEE704480549054A064B70470000F2
:10035000613C0008AD010008C84D0020C8530020D2
:10036000C84F0020C84F0020032A40F2308010F010
:10037000030C00F0158011F8013BBCF1020F624440
:1003800098BF11F801CB00F8013B38BF11F8013BD1
:10039000A2F1040298BF00F801CB38BF00F8013B7E
:1003A00011F0030300F02580083AC0F0088051F8EE
:1003B000043B083A51F804CBA0E80810F5E7121DF9
:1003C0005CBF51F8043B40F8043BAFF30080D20718
:1003D00024BF11F8013B11F801CB48BF11F8012BE4
:1003E00024BF00F8013B00F801CB48BF00F8012B07
:1003F000704710B5203AC0F00B80B1E81850203A91
:10040000A0E81850B1E81850A0E81850BFF4F5AFB4
:100410005FEA027C24BFB1E81850A0E8185044BF3E
:1004200018C918C0BDE810405FEA827C24BF51F8AB
:10043000043B40F8043B08BF7047D20728BF31F89F
:10044000023B48BF11F8012B28BF20F8023B48BFF0
:1004500000F8012B704702F0FF0343EA032242EA4F
:10046000024200F010B870477047704710B500F0B6
:100470002BF8006810BD10B5044600F025F80460A4
:1004800010BD4FF000020429C0F0128010F0030CE0
:1004900000F02080CCF1040CBCF1020F18BF00F872
:1004A000012BA8BF20F8022BA1EB0C0100F012B821
:1004B0005FEAC17C24BF00F8012B00F8012B48BF84
:1004C00000F8012B7047000000487047644D002081
:1004D0004FF0000200B5134694469646203922BFDD
:1004E000A0E80C50A0E80C50B1F12001BFF4F7AF28
:1004F000090728BFA0E80C5048BF0CC05DF804EB0A
:10050000890028BF40F8042B08BF704748BF20F877
:10051000022B11F0804F18BF00F8012B704700002C
:1005200000487047644D00207546FFF7F9FFAE465E
:1005300005006946534620F00700854618B020B5EF
:10054000FFF700FFBDE820404FF000064FF0000726
:100550004FF000084FF0000B21F00701AC46ACE86B
:10056000C009ACE8C009ACE8C009ACE8C0098D46D8
:10057000704710B50446AFF300802046BDE8104038
:10058000FFF76DBE01491820ABBEFEE72600020052
:1005900070470000064804A140F8131F05A1C16080
:1005A00005A18161704700006779726F000000004B
:1005B000984C0020616363006D6167003522024939
:1005C0000248FFF716BF000000001E08984C0020EC
:1005D0003521014800F002B8984C00202DE9F04187
:1005E000124C06460D46204600F0B6FA074601F0CA
:1005F000A5F90F4800210160022101610121C0E934
:1006000002710C4901F004F940B1FEE70023327891
:100610002146184601F054F9641C761C6D1EF5D273
:1006200001F044F90020BDE8F081000000001E0840
:1006300084460020E8010020FEE70000014800F0A9
:10064000E3BB0000CC020020014800F0DDBB00004D
:10065000CC020020014800F0D7BB00000C030020B2
:10066000014800F0D1BB00000C03002010B54FF48E
:10067000D872036802EB01129B5813F00404436B19
:100680009C600468436BA45854D0E4085C60036821
:100690009A58436B02F00202DA604FF4DA72036890
:1006A00002EB01129B58446B03F00F0323610368B4
:1006B0009A58436BC2F30722DA614FF4DC72036885
:1006C00002EB01129B58446B237503689B58446BE3
:1006D0001B0A637503689B58446B1B0CA375036866
:1006E0009A58436B120EDA754FF4DE72036802EB10
:1006F00001129B58446B237603689B58446B1B0A7A
:10070000637603689B58446B1B0CA37603689A5866
:10071000436B120EDA762022002901680DD00A619F
:1007200001684A6922F010024A6190F838102229C3
:1007300009D021E0640D1C60A9E7CA6001684A691C
:1007400022F00202F0E701684A6922F480724A61ED
:1007500001684A6922F400724A6101684A6922F418
:1007600080624A6101684A6922F400624A61016854
:100770004A6922F400424A6190F83810322907D0C1
:100780005FF0010180F8381000F056FD002010BD28
:100790001221F7E710B501684A6922F001024A61A7
:1007A00090F83810122918D101684A6922F4807231
:1007B0004A6101684A6922F400724A6101684A6923
:1007C00022F480624A6101684A6922F400624A6147
:1007D00001684A6922F400424A6190F838103229CF
:1007E00006D0012180F8381000F094FE002010BDE2
:1007F0002221F7E7014800F0A1BE000064050020B7
:10080000014800F09BBE000004050020014800F0F4
:1008100095BE0000C4050020014800F08FBE000016
:10082000A404002001681823CAB2103AB2FBF3F204
:10083000054B6FF30901032A9B5CC36500D9091DB1
:1008400081650846704700007885000810B50146AC
:1008500000208B698A6A4FF0C07453B1B3F5005F12
:1008600015D072B1012A0CD0022A0AD0032A09D16C
:1008700004E01AB1012A06D0022A03D1C96AC901CB
:1008800000D5012010BDC96AA142FAD010BD002ACE
:10089000F7D0012AF2D0022AF3D0032AF3D010BDF8
:1008A00030B50468256825F48025256004686360F8
:1008B0008368402B036803D099600068C26030BD34
:1008C0009A600068C16030BD7047000010B507F045
:1008D0003DF8064C2168884207D107F04BF8A16823
:1008E000401AE06021690844206110BD64010020C5
:1008F000FEE70000002229B1012922D0022923D0DD
:100900004FF440720B2800D9001D11490B6823F4E5
:1009100040730B600B6813430B600A6822F0F80207
:100920000A600A68F82393FAA3F3B3FA83F39840B2
:1009300040F0020002430A60086840F4803008601A
:1009400070474FF48072DDE74FF40072DAE7000081
:10095000103C02401348016889050FD5016821F455
:1009600000710160016841F400610160016821F4D7
:1009700000610160016841F400710160016849058E
:100980000FD5016821F480610160016841F4805154
:100990000160016821F480510160016841F48061C7
:1009A00001607047003C02400E4A136823F4407314
:1009B000136003290DD0012911680FD041F40041C3
:1009C000116011684FF4803343EA00200143116045
:1009D0007047116848F204031943F1E741F004013C
:1009E000EEE70000103C0240064A136823F440730F
:1009F000136013681360136843F001031360017000
:100A000070470000103C0240084910B50C6824F4FF
:100A100040740C600C6844F440740C600C6844F042
:100A200001040C600260436010BD0000103C0240F5
:100A3000074A136823F440731360136843F4807308
:100A40001360136843F001031360018070470000D6
:100A5000103C0240074A136823F440731360136884
:100A600043F400731360136843F0010313600160E3
:100A700070470000103C02401F490868C043C2068E
:100A80001E4805D4C26942F01002C26110220A60F9
:100A90000A68D243920605D4C26942F00802C261D4
:100AA00020220A600A68D243520605D4C26942F085
:100AB0000402C26140220A600A68D243120605D4C9
:100AC000C26942F00202C26180220A600A68D2430F
:100AD000D20506D4C26942F00102C2614FF48072AD
:100AE0000A600A68D243920705D4C26942F0200224
:100AF000C2610220086070470C3C02402045002083
:100B000070B5134904460020C86101F017F8064685
:100B1000104D09E0601C07D024B101F00FF8801BD4
:100B2000A04201D9032070BD2868C043C003F1D59D
:100B30002868C00701D00120286029684FF4F970A7
:100B4000884301D0002070BDFFF796FF012070BDE3
:100B5000204500200C3C024010B50021A0F10063AC
:100B60004FF48042934204D345490144914201D25B
:100B7000012182E043490144914201D202217CE0FB
:100B800041490144914201D2032176E03F494FF4AB
:100B900080330144994201D204216EE03C4944185B
:100BA0004FF400318C4201D2052166E0394C0444F7
:100BB0008C4201D2062160E0374C04448C4201D2C1
:100BC00007215AE0354C04448C4201D2082154E0FC
:100BD000334C04448C4201D209214EE0314C044490
:100BE0008C4201D20A2148E02F4C04448C4201D2AD
:100BF0000B2142E0A0F10164944201D20C213CE0BF
:100C00002A4C0444944201D20D2136E0284C04447D
:100C1000944201D20E2130E0264C0444944201D289
:100C20000F212AE0244A02449A4201D2102124E0F2
:100C3000224A02448A4201D211211EE0204A024483
:100C40008A4201D2122118E01E4A02448A4201D28D
:100C5000132112E01C4A02448A4201D214210CE002
:100C60001A4A02448A4201D2152106E0184A104469
:100C7000884201D2162100E01721084610BD00006D
:100C800000C0FFF70080FFF70040FFF70000FFF70C
:100C90000000FEF70000FCF70000FAF70000F8F78C
:100CA0000000F6F70000F4F70000F2F700C0EFF7DD
:100CB0000080EFF70040EFF70000EFF70000EEF7DD
:100CC0000000ECF70000EAF70000E8F70000E6F7A4
:100CD0000000E4F710B558B1084C491E0BD310F8CA
:100CE000013B5340DBB234F8133083EA1222F4E7BD
:100CF0004FF6FF7010BD104610BD0000948600082E
:100D000010B5064C04E000BF10F8013B5340E25C14
:100D1000491E89B2F8D2104610BD00009485000823
:100D2000F0B50A7D01209040344A136843F0010376
:100D30001360136823F47C53136013684C6A43EA0E
:100D4000042313602D4B1C331C6884431C602B4D03
:100D50002B4CCE690C35A6B92E6886432E608F8940
:100D60004E6867F31F464F6904EBC707C7F8406634
:100D70000F890E6867F31F464F6904EBC707C7F872
:100D80004466CE69012E14D12E6806432E600E886B
:100D90004D6866F31F454E6904EBC606C6F840561B
:100DA0000E89CD6866F31F454E6904EBC604C4F88E
:100DB0004456124C8D69241D002D256806D005432C
:100DC00025600E4C0D69143415B104E08543F7E736
:100DD0002568854325600D69012D02D125680543ED
:100DE0002560096A012902D1196801431960106858
:100DF00020F0010010600020F0BD000000660040FF
:100E0000006000407047000010B50446006841696A
:100E1000C943C90714D182685849914368D0002159
:100E20008368574A9A4365D000228368554898439F
:100E300062D000201143014302D02046FFF7AAFCF4
:100E40002068C168406911F0030FC0F3400004D06E
:100E500018B100212046FFF709FC2168086949699B
:100E600010F0030FC1F3001104D019B10121204685
:100E7000FFF7FCFB20688169426911F0010FC2F3A2
:100E800000234269C2F3C03205D023B11AB1E16B2D
:100E900041F00101E1638169C1F3400341694269A5
:100EA000C1F34021C2F3C0322BB121B11AB1E16BC1
:100EB00041F00201E16381694269C1F38001C2F33B
:100EC00080234269C2F3C03229B123B11AB1E16B68
:100ED00041F00401E163816911F0700F0ED000212F
:100EE00042694369C2F3C022C3F3C03341B127E072
:100EF000012195E7012298E701209BE70121EFE717
:100F0000F2B1EBB1816901F07001402929D006DC12
:100F1000102909D020290BD030290DD11DE05029EE
:100F200023D0602908D124E0E16B41F0080102E000
:100F3000E16B41F01001E163816921F07001816191
:100F4000E06B002808D0216804204860012084F864
:100F500038002046FFF756FF10BDE16B41F020013D
:100F6000E9E7E16B41F04001E5E7E16B41F0800129
:100F7000E1E7E16B41F48071DDE70000030000046C
:100F800000030008000003102DE9F041040004D024
:100F900094F83800002518B107E00120BDE8F08181
:100FA00084F83950204600F093F8022084F8380085
:100FB0002068016821F0020101602068016841F0A9
:100FC0000101016000F0BAFD0746032605E000BFFD
:100FD00000F0B4FDC01B0A2863D820684068C00731
:100FE000F6D020684168C90768D0A1690129016865
:100FF0003FD021F080010160E0690128206801688C
:101000003AD021F040010160206A0128206801687F
:1010100035D021F020010160606A01282068016854
:1010200030D021F010010160A06A01282068016819
:101030002BD021F008010160E06A012820680168D6
:1010400026D021F004010160D4E902010843D4E96B
:101050000412114308436168491E08432168C861AE
:101060002068016821F00101016000F067FD07467A
:101070001CE041F08001BEE741F04001C3E741F0D0
:101080002001C8E741F01001CDE741F00801D2E7A7
:1010900041F00401D7E700BF00F050FDC01B0A2853
:1010A00004D904F8386F0320657077E7206840683A
:1010B000C007F1D120684068C00703D0042084F83D
:1010C00038006AE7E563012084F83800002065E70E
:1010D000F0B5324B0768DFF8C0C01868032202245D
:1010E00009252F490026401C87B0674521D118608B
:1010F000012807D1086840F000700860086800F017
:10110000007005908DE85400CDE903256946254817
:1011100000F028FC00220521132000F0A9FD132077
:1011200000F09AFD00220521142000F0A1FD1420FA
:101130002EE0DFF874C067452CD10F6847F0806758
:101140000F600F68012807F080670597186007D1C6
:10115000086840F000700860086800F000700590B2
:101160004FF440508DE85100CDE9032569460F4802
:1011700000F0F8FB002211463F2000F079FD3F20EF
:1011800000F06AFD00221146402000F071FD402071
:1011900000F062FD07B0F0BD00640040B800002020
:1011A00040380240000C0240006800400004024049
:1011B00010B590F83820012A01D0122A39D190F8C0
:1011C0003920012A35D0012280F8392090F83820C2
:1011D000122A29D05FF0220280F838200022C26350
:1011E00003685C6944F480745C6103685C6944F47E
:1011F00000745C6103685C6944F480645C6103684A
:101200005C6944F400645C6103685C6944F4004414
:101210005C6180F8392000680029416906D041F0FE
:1012200010014161002010BD3222D5E741F00201DA
:10123000F7E7022010BD000070B50146406B40F298
:101240000525474C0268A2F20523AA422FD00ADCEA
:10125000A2F50070013812D0012810D002280ED05B
:10126000032870D10BE0012B26D0022B2AD0B3F536
:10127000FE7F36D0A3F58073FD3B64D143E0521E60
:10128000D0B22070C0EBC002364800EB8200426949
:10129000531C4361322A02D804F022FC01E004F01E
:1012A000EFFB207810F1020004F09CFA4BE02E488E
:1012B00004F0E6FB0920F7E72B481C3804F0E0FBBC
:1012C0000A20F1E7284A1C325069401C50610A2864
:1012D000104602D804F004FC01E004F0D1FB0B201E
:1012E000E2E74169C07D09BA21F0FF01014300EE48
:1012F000101ADFED1E0A0120B8EEC00A20EE200A07
:1013000084ED010AD0E74269C07D12BA22F0FF02E3
:10131000024300EE102A1748F8EEC00A9FED140AA7
:1013200060EE800AC0ED080A496B8A69C97E12BA6C
:1013300022F0FF020A4300EE902AF8EEE00A20EEC7
:10134000800A80ED090A0C480068416941F00201F9
:1013500041610A480068416941F00201416170BD84
:10136000E0010020404500204C4600200AD723BC65
:101370000AD7233C94020020CC0200200C0300205A
:101380002DE9F05F0E46016804468868400105D4E7
:101390008868000102D48868C00067D594F83900D5
:1013A00001280ED0012784F8397094F838002228DB
:1013B0000AD0122084F838008868400106D500253C
:1013C0000AE00220BDE8F09F3220F3E788680001C0
:1013D00001D5012500E002254FF4C07000EB051097
:1013E0000A5802F001020A50216B8A68EAB3D4F865
:1013F00000C05CF800301343CA68496842EAC10182
:101400000B434CF80030216B0A7C02F00F020A619A
:101410004FF4C271226801EB0511535823F00F03FA
:10142000535022685358D4F830C0DCF810C043EA57
:101430000C035350216B4FF4C47303EB05130A7D67
:10144000D1F8151042EA01212268D150216B4FF4E6
:10145000C67303EB05130A7ED1F8191042EA012185
:101460002268D15021680A5801E00DE046E042F0C0
:1014700001020A5000F062FB81464FF00008DFF8DD
:1014800088A0DFF888B019E022681358D1F80CC0A2
:10149000098843EA0C0343EA41511150B3E7701C39
:1014A0000CD02EB100F04AFBA0EB0900B04205D9E8
:1014B000032084F8380084F8398083E795B12068E8
:1014C000012D816813D0124888430028E7D194F891
:1014D000380032280ED084F8387000BF84F8398084
:1014E00000206FE7206881682AEA0100EDE72BEA17
:1014F0000100EAE7222084F83800EFE7042084F8AE
:10150000380001205EE7000003000004000300082B
:1015100000000310704790F83510022903D0802195
:10152000416501207047052180F835100068016889
:1015300021F0010101600020704700002DE9F8430F
:1015400004464FF00008CDF8008064484FF416516F
:10155000A56D0068B0FBF1F72E6894F85C100820C8
:1015600000FA01F131420FD021680A6852070BD509
:101570000A6822F004020A6094F85C108840A860AF
:10158000606D40F00100606594F85C10544888403C
:10159000304208D021684969090604D5A860606D09
:1015A00040F0020060654E4894F85C10C01C884012
:1015B000304208D021680968890704D5A860606DA9
:1015C00040F00400606594F85C10102088403042C0
:1015D00018D021680968090714D5A8602068016837
:1015E000490304D50068000308D5A16C07E0016831
:1015F000C90503D4016821F008010160216C09B11B
:101600002046884794F85C102020884030424FF0F4
:10161000010631D021680968C9062DD5A86094F863
:10162000350005282068016806D0490347D50068C1
:1016300000031DD4616C1CE021F0160101602068DC
:10164000416921F080014161206C08B9A06C20B192
:101650002068016821F00801016094F85C103F20C7
:101660008840A86084F8348084F83560216D1FE0DC
:10167000E16B09B120468847606D00282BD0606D72
:10168000C00714D0052084F835002068016821F0D7
:10169000010101600098401C0090B84203D8206806
:1016A0000068C007F6D184F8348084F83560E16CB6
:1016B000002910D001B02046BDE8F043084701687A
:1016C000C905D5D4016821F01001016084F8348087
:1016D00084F83560CCE7BDE8F88300007C01002089
:1016E000010080002DE9F041044600F027FA06468B
:1016F0005CB1002584F83450022084F8350020685D
:10170000016821F0010101600DE00120BDE8F081D8
:1017100000F014FA801B052805D9202060650320FD
:1017200084F83500F2E720680068C007F0D122682D
:1017300011681F480140D4E901031843D4E9033676
:101740003343184363691843A3691843E369184393
:10175000236A18430843616A042903D1D4E90B13AF
:1017600019430843106020684069666A20F0070149
:1017700030460E43012704280AD1A06A06432046BA
:10178000FFF764F820B14020606584F83570BCE74D
:10179000206846612046FFF745F894F85C203F2119
:1017A00091408160656584F835700020AEE70000E7
:1017B0003F8010F070B5044690F8340000250128F1
:1017C0000CD0012084F8340094F835600020012EFC
:1017D00006D084F834000225284670BD022070BD72
:1017E000022684F8356060652046FFF759F82068C6
:1017F000016841F001010160EEE731B500F09EF9AA
:10180000044600F09BF90099001B8842F9D338BDCB
:101810002DE9F047044623480F46017E01290AD0EE
:101820000121804601764CF250394846FFF768F9AD
:10183000020003D030E00220BDE8F0874FF0FF3017
:1018400038602068184D012801D0A6681DE0207C72
:101850006168FFF7A9F84846FFF752F90246286881
:1018600048F204018843286014E0217C3046FFF7E9
:1018700041F84846FFF744F90200286820F0FA00D2
:10188000286001D03E6005E0761CD4E902100844CF
:10189000B042EAD8FFF75EF8002188F81810104629
:1018A000CAE7000020450020103C024003480168C0
:1018B00041F000410160002070470000103C0240F0
:1018C0002DE9F0471B4E05461446307E1F468946DB
:1018D000012808D0012030764CF250384046FFF7FE
:1018E0000FF918B114E00220BDE8F0879DB1012D79
:1018F00016D0022D19D022463B464846FFF784F801
:101900004046FFF7FDF80C490A6822F001020A6020
:1019100000213176E8E7E1B24846FFF765F8EFE7E6
:10192000A1B24846FFF784F8EAE721464846FFF7A8
:1019300091F8E5E720450020103C02400648006889
:10194000002807DA044805490C38016004490160A1
:101950000020704701207047103C0240230167457A
:10196000AB89EFCD2DE9F84FDFF890B100224FF0B1
:1019700001084FF0030A4FF00F090BF1040E00BFEE
:101980000B6808FA02F42340A3426ED14D68022D81
:1019900001D0122D0ED1D50800EB850CDCF82050BB
:1019A0005607F70E09FA07F6B5430E69BE402E43F7
:1019B000CCF82060066855000F790AFA05FC07F09C
:1019C000030726EA0C06AF40374307604E68012E36
:1019D00005D0022E03D0112E01D0122E0ED1876811
:1019E000CE6827EA0C07AE403E4386604668A643B1
:1019F0000C79C4F30014944034434460C4688E6886
:101A000024EA0C04AE402643C6604C68E4006FD55F
:101A10003B4C256845F480452560246822F0030589
:101A200004F480440094374C2E19D6F808489507E2
:101A30002F0F09FA07F5AC43334DA84201D1002519
:101A40002EE0324DA84201D1012529E0304DA842B7
:101A500001D1022524E02F4DA84201D103251FE02A
:101A60002D4DA84202D104251AE041E02B4DA84299
:101A700001D1052514E02A4DA84201D106250FE029
:101A8000284DA84201D107250AE0274DA84201D1DF
:101A9000082505E0254DA84201D1092500E00A25C9
:101AA000BD402543C6F80858DBF800405D464E6847
:101AB0009C43F60300D51C432C60DEF800407546BD
:101AC0004E689C43B60300D51C432C600B4D083573
:101AD0002C684E689C43F60200D51C432C60074DD1
:101AE0000C352C684E689C43B60200D51C432C6014
:101AF000521C102AFFF444AFBDE8F88F003C0140AF
:101B0000443802400030014000000240000402401E
:101B100000080240000C0240001002400014024085
:101B200000180240001C0240002002400024024035
:101B30000AB1816170470904FBE7000001480068B1
:101B400070470000DC01002002480168491C016068
:101B500070470000DC0100200B4810B5016841F41B
:101B600000710160016841F480610160016841F425
:101B700080710160032000F09BF8002000F006F85F
:101B800000F03EF8002010BD003C024010B50146B8
:101B900088B00022362000F06BF8362000F05CF8A8
:101BA00013480024016841F010010160006805A994
:101BB00000F010000690684600F090F900F0B4F9CB
:101BC0000C494000B0FBF1F10C480B4A491E026081
:101BD00040F2E732C0E90324C0E9011400F03DFD02
:101BE00010B1012008B010BD044800F052FDF9E723
:101BF0004038024040420F000010004030020020F8
:101C000010B5032000F054F8002211466FF00B00CD
:101C100000F02EF8002211466FF00A0000F028F8BC
:101C2000002211466FF0090000F022F80022114650
:101C3000501F00F01DF800221146101F00F018F888
:101C400000220F21901E00F013F800220F21BDE8A2
:101C50001040501E00F00CB800F01F02012191400E
:101C60004009800000F1E020C0F80011704700003A
:101C7000F0B40E4B1B680C46C3F30223C3F10705F7
:101C8000042D00D90425191D072901D2002300E0E5
:101C9000DB1E012606FA05F1491E214099409E40AF
:101CA000761E16403143F0BC01F0FFBE0CED00E0A3
:101CB000064900F0070208684FF6FF03184040EAA3
:101CC0000220034A10430860704700000CED00E05A
:101CD0000000FA052DE9F8431E48016841F08051E3
:101CE00001600068012600F080500090300490FAF6
:101CF000A0F0194FB0FA80F047F82060FFF71EFF00
:101D000005464FF47A78154C05E000BFFFF716FF43
:101D1000401B404515D86068C003F7D54FF400302C
:101D200090FAA0F0B0FA80F047F82060FFF706FFC5
:101D30000546464608E000BFFFF700FF401BB042E3
:101D400002D90320BDE8F88360688003F4D5002041
:101D5000F8E700004038024000000E4200700040EA
:101D60002DE9F047DFF8649105460F46D9F80000E9
:101D700000F00F01F8B28046B94208D2014689F856
:101D80000010D9F8000000F00F00B84274D1287894
:101D90004F4C800705D52068A96820F0F000084363
:101DA00020602878C00759D0494968680839012857
:101DB0001AD002281BD0032819D0096889070029E6
:101DC0005ADA216821F0030101432160FFF7B6FED2
:101DD0006968064641F28830012911D002291DD0D8
:101DE0000329824627D035E009688903E7E70968B7
:101DF0008901E4E7FFF7A2FE811B514501D926E0E6
:101E000082462068C0F381000128F3D126E000BF9C
:101E1000FFF794FE811B514501D918E082462068E6
:101E2000C0F381000228F3D118E000BFFFF786FE5F
:101E3000811B51450BD82068C0F381000328F5D1E0
:101E40000CE000BFFFF77AFE811B514502D9032049
:101E5000BDE8F087206810F00C0FF3D1D9F800101E
:101E6000484601F00F01B94208D980F800800068A7
:101E700000F00F00B84201D00120E9E728784007C0
:101E800005D52068E96820F4E050084320602878F0
:101E9000000706D52068296920F4604040EAC100A7
:101EA000206000F071F82168F02292FAA2F201F0AD
:101EB000F001B2FA82F2D140064A515CC8400649AC
:101EC00008600020FFF762FE0020C1E7003C0240EE
:101ED00008380240688500087C0100200F2202605B
:101EE0000C4A136803F003034360136803F0F00324
:101EF0008360136803F4E053C36012684FF4E05347
:101F000003EAD20202610448006800F00F00086092
:101F10007047000008380240003C02400148006859
:101F2000704700007C0100200848094900680968E2
:101F30004FF4E05292FAA2F201F4E051B2FA82F2C6
:101F4000D140044A515CC840704700007C01002029
:101F5000083802406885000808480949006809688F
:101F60004FF4604292FAA2F201F46041B2FA82F2B6
:101F7000D140044A515CC840704700007C010020F9
:101F8000083802406885000830B51948006810F02C
:101F90000C01184812D0184C04290ED008290DD174
:101FA0001349091F0A6802F03F030A68550247F601
:101FB000C07204D5B4FBF3F003E0204630BDB0FBA3
:101FC000F3F00B680968134092FAA2F2B2FA82F2B7
:101FD000D34058434FF4403292FAA2F201F4403118
:101FE000B2FA82F2D140491C4900B0FBF1F030BD99
:101FF000083802400024F400001BB7002DE9F84F18
:102000000446DFF8CC820078A8F1040BC007ABF1DE
:10201000040537D0D8F800104046C1F381010129EA
:1020200008D00068C0F3810002280AD1DBF8000064
:10203000400206D52868800324D56068002878D03F
:1020400020E0A3492079891F0870606868B1FFF714
:1020500075FD064605E000BFFFF770FD801B642894
:1020600068D828688003F7D50CE0FFF767FD0646BF
:1020700005E000BFFFF762FD801B6428F0D82868E8
:102080008003F7D42078934E80074FF0010A4FF079
:10209000000742D5D8F80010404611F00C0F08D0C8
:1020A0000068C0F3810002280AD1DBF8000040027A
:1020B00006D42868800714D5E068012839D110E0DB
:1020C000E068D8B1C6F800A0FFF738FD814605E00A
:1020D000FFF734FDA0EB09000228C1D8286880076B
:1020E000F6D52868F82292FAA2F22169B2FA82F2B1
:1020F00020F0F8009140084328600EE03760FFF7B9
:102100001DFD814606E000BFFFF718FDA0EB0900AA
:1021100002280FD828688007F6D42078000728D531
:102120006D486169A1B1C0F800A0FFF707FD8146C5
:1021300008E0CAE079E000BFFFF700FDA0EB09006E
:10214000022872D862486C3000688007F4D510E02D
:102150000760FFF7F3FC814606E000BFFFF7EEFCE7
:10216000A0EB0900022860D859486C30006880074D
:10217000F4D42078400749D555483830016841F0FB
:1021800080510160006800F0805000905348016861
:1021900041F480710160FFF7D1FC814606E000BF89
:1021A000FFF7CCFCA0EB090002283ED84B480068A2
:1021B000C005F5D5DFF81891207A09F1680989F88A
:1021C0000000A06888B1FFF7B9FC009008E000BFEC
:1021D000FFF7B4FC0099411A41F2883081426CD873
:1021E000D9F800008007F3D510E0FFF7A7FC0090B6
:1021F00008E000BFFFF7A2FC0099411A41F28830C5
:1022000081425AD8D9F800008007F3D4A069E0B31E
:10221000D8F80010C1F38101022956D00228376690
:1022200004D0FFF78BFC04464AE046E0FFF786FC4B
:10223000074604E0FFF782FCC01B02283DD828684F
:102240008001F7D4D4E90701084347F6C07292FA37
:10225000A2F2616AB2FA82F29140A26A4FF0FF33B1
:1022600003EB52024FF4403393FAA3F3B3FA83F330
:102270009A40114308434FF0706292FAA2F2E16A69
:10228000B2FA82F29140084300E01CE0CBF8000073
:10229000C6F860A0FFF752FC044604E0FFF74EFCCE
:1022A000001B022809D828688001F7D50BE000BF81
:1022B000FFF744FC001B022802D90320BDE8F88F79
:1022C00028688001F4D40020F8E70120F6E7000038
:1022D0000838024000004742800E4742007000402C
:1022E00070B5040005D00025A56294F8510010B126
:1022F00006E0012070BD84F85050204600F030F810
:10230000022084F851002068016821F0400101603A
:10231000D4E901010843D4E9031211430843616978
:102320000843218B01F400710843E1690843216AE5
:102330000843A16A084321680860A069042101EAF2
:102340001040616A0843216848602068C16921F42F
:102350000061C1616565012084F85100002070BDF5
:1023600000B500680E4987B0884217D10D4800219A
:10237000026842F480120260006800F48010059048
:102380004FF4607000900220CDE90101032003901A
:102390000520049069460448FFF7E4FA07B000BD41
:1023A0000050014044380240001402402DE9F84F2B
:1023B000044690F8500000260A9F9A4693460D4620
:1023C0004FF0010801280ED0012084F85000FFF7DB
:1023D000B5FB814694F85100616801280CD0B1F535
:1023E000827F07D102E00220BDE8F88FA16809B919
:1023F000042801D00226BDE055B1BBF1000F07D083
:10240000BAF1000F04D094F85100012802D004E082
:102410000126AFE0052084F8510000206065C4F873
:1024200038B0A4F83EA0A4F83CA02563A4F836A0D8
:10243000A4F834A02064606420680168490603D4CD
:10244000016841F040010160E068B0F5006F60682C
:1024500004D0E8B3E08E01283BD06AE010B1E08EF2
:1024600001282ED1216835F8020BC860E08E401E8D
:10247000E08626E0B8F1000F0DD0E08E58B120685C
:102480008168890707D535F8021BC160E08E401EC0
:10249000E0864FF00008E08F58B120688168C907D6
:1024A00007D0C0682BF8020BE08F401EE0874FF08A
:1024B0000108781C05D0FFF741FBA0EB0900B842EA
:1024C00046D2E08E0028D5D1E08F0028D2D136E068
:1024D000FFE7216815F8010B0873E08E401EE086C7
:1024E00027E000BFB8F1000F0DD0E08E58B1206892
:1024F0008168890707D515F8011B0173E08E401E1E
:10250000E0864FF00008E08F58B120688168C90765
:1025100007D0C0680BF8010BE08F401EE0874FF03A
:102520000108781C05D0FFF709FBA0EB0900B842B1
:102530000ED2E08E0028D5D1E08F0028D2D13B46C4
:10254000012202212046CDF8009001F0DBFA08B10B
:1025500003260FE04A463946204601F0C3FA18B177
:1025600001262020606505E0A06818B92068C168D0
:1025700080680090012084F85100002084F8500009
:10258000304631E74FF0E0210428086903D020F0FD
:1025900004000861704740F00400FAE710B5401EDF
:1025A000B0F1807F01D3012010BD4FF0E0246061C5
:1025B0000F21601701F079FA0020A0610720206147
:1025C000002010BD7047704730B590F83820012AC0
:1025D00019D0012200F8382F02234370D1E90034CA
:1025E0002343D1E902452C4323430C6923434C691F
:1025F000896923430B4350F8381C4B644270002117
:102600000170084630BD022030BD30B590F838204A
:10261000012A20D0012280F83820022380F83930A6
:1026200003685C6824F070045C6003685C680D6893
:102630002C435C6003689C6824F080049C60036801
:102640009C6849680C439C6080F83920002180F820
:102650003810084630BD022030BD10B5040003D04C
:1026600094F8390010B107E0012010BD002084F873
:102670003800204600F00CF8022084F83900211DB3
:10268000206801F01DFB012084F83900002010BDF6
:1026900070470168CA6842F00102CA6000680168B8
:1026A00041F00101016000207047704770B5044699
:1026B000006801694FF00005C943890715D4C16856
:1026C000C943890711D4E91E0161012020762068E1
:1026D00080698007204602D0FFF7E7FF04E000F0A2
:1026E0001DF9204600F0ECF9257620680169C94300
:1026F000490717D4C168C943490713D46FF00401CF
:102700000161022020762068806910F4407F204615
:1027100002D0FFF7CAFF04E000F000F9204600F005
:10272000CFF9257620680169C943090716D4C16825
:10273000C943090712D46FF0080101610420207613
:102740002068C0698007204602D0FFF7AEFF04E092
:1027500000F0E4F8204600F0B3F92576206801691E
:10276000C943C90617D4C168C943C90613D46FF059
:1027700010010161082020762068C06910F4407FB4
:10278000204602D0FFF791FF04E000F0C7F8204692
:1027900000F096F9257620680169C943C90708D178
:1027A000C168C943C90704D1891E0161204600F0F0
:1027B000A5F920680169C943090609D4C168C9435C
:1027C000090605D46FF0800101612046FFF7FAFE8B
:1027D00020680169C943490609D4C168C94349064B
:1027E00005D46FF040010161204600F091F92068A6
:1027F0000169C94389060BD4C168C943890607D456
:102800006FF0200101612046BDE87040FFF7DBBE9C
:1028100070BD0000F0B5016800240225012635488E
:1028200085B0B1F1804F08D0334A91421CD130219C
:102830000091CDE9015469463FE040F6084100911E
:10284000CDE90154CDE903466946FFF78BF84FF413
:1028500000400090CDE90154CDE903466946274880
:10286000FFF780F805B0F0BD254A914211D14FF431
:1028700040710091CDE901546946CDE90345FFF768
:1028800071F84FF440500090CDE9015469461D485D
:1028900013E01D4A1D481E4F914211D10096CDE90B
:1028A00001546946CDE90345FFF75CF84FF4E05069
:1028B0000090CDE9015469463846CDE90345CFE79C
:1028C000144A914208D1E4210091CDE90154032139
:1028D000CDE903416946C3E70F488142C2D14FF4B5
:1028E00010700090CDE901540920CDE903406946FC
:1028F0003846B5E7000402400004004000000240F2
:1029000000080040000C0240000C00400020024083
:10291000001C02400004014000180040704770B5E0
:10292000044690F838000D4601280DD0012684F8A1
:102930003860022084F8390042B1042A18D0082AED
:102940002AD00C2A4DD139E0022070BD206801F058
:1029500023FA2068816941F008018161206881695A
:1029600021F004018161206881692A69114311E025
:10297000206801F03DFA2068816941F400618161BD
:102980002068816921F480618161206881692A69F8
:1029900041EA0221816124E0206801F05BFA2068AD
:1029A000C16941F00801C1612068C16921F00401D9
:1029B000C1612068C1692A69114311E0206801F0F2
:1029C00079FA2068C16941F40061C1612068C16978
:1029D00021F48061C1612068C1692A6941EA02214C
:1029E000C16184F83960002084F8380070BD10B5EA
:1029F000040003D094F8390010B107E0012010BDA5
:102A0000002084F83800204600F00CF8022084F8FA
:102A10003900211D206801F053F9012084F83900A4
:102A2000002010BD08B501681F48B1F1804F0BD0E0
:102A30001E4A914210D1016841F002010160006814
:102A400000F00200009008BD016841F00101016042
:102A5000006800F00100F5E7154A914207D10168CE
:102A600041F004010160006800F00400EAE7114A47
:102A7000914207D1016841F008010160006800F04F
:102A80000800DFE70C4A914202D10748001DD2E757
:102A90000A4A9142D7D1016841F0400101600068C3
:102AA00000F04000CEE70000403802400004004043
:102AB00000080040000C00400004014000180040E5
:102AC0007047000010B504460068012201F058F973
:102AD00008492068884202D00749884203D1416CE6
:102AE00041F4004141642068016841F00101016046
:102AF000002010BD000001400004014000680349AF
:102B0000884201D1FFF720B8704700000010004054
:102B10007047704770B5026804461068D168536901
:102B200010F00F0F51D003F0010501F490763543FA
:102B30005DD0C20705D0CA0503D5E26B42F00102A1
:102B4000E263420705D5DA0703D0E26B42F00202E6
:102B5000E263820705D5DA0703D0E26B42F0040294
:102B6000E263020705D5DA0703D0E26B42F0080200
:102B7000E263E26B002A34D0800604D5880602D5D1
:102B8000204601F0FCF920684069E16BC0F3801039
:102B900001F008010143204624D001F0BBF9206870
:102BA000416949061AD5416921F040014161606BD4
:102BB000A0B11B490165606BFEF7ADFC002810D089
:102BC000606B016DBDE87040084783060FD58B062A
:102BD0000DD52046BDE8704001F0D1B92046FFF781
:102BE00098FF70BDFFF795FF0020E06370BD0306FE
:102BF00006D50B0604D52046BDE8704001F05CBB4D
:102C00004006F3D54806F1D5D168204621F04001B1
:102C1000D160202184F8391000F0C2F970BD0000A5
:102C2000053F000870B5040004D094F83900002571
:102C300010B106E0012070BD84F83850204600F045
:102C400023F8242084F839002068C16821F4005159
:102C5000C160204601F0DAF92068016921F4904151
:102C600001612068416921F02A0141612068C16841
:102C700041F40051C160E563202084F8390084F8F4
:102C80003A00002070BD00002DE9F04F0546D0F855
:102C900000C00220DFF81C820024DFF81CA2012102
:102CA000032207238706460287B0C4453BD1DAF8E2
:102CB000008048F01008CAF80080DAF800C00DF172
:102CC00004080CF0100CCDF814C04FF0C00CCDF877
:102CD00000C088E80F0069467848FEF743FEDFF839
:102CE000E48177494046C8F80010C0E90174C0E9A2
:102CF0000346C8F81440C8F81840C8F81C40C8F883
:102D00002040C8F82440FEF7EDFC08B1FDF7F0FDC7
:102D1000C5F83480002205212520C8F83850FEF778
:102D2000A7FF252046E0DFF8A081DFF88C91DFF8CF
:102D30009CB1A9F10409C44541D1D9F8008048F4F7
:102D40000038C9F80080D9F800C00DF104080CF46F
:102D5000003CCDF814C04FF0600CCDF800C088E8FE
:102D60000F0069465846FEF7FDFDDFF858815849C7
:102D700008F160084046C8F80010C0E90174C0E9D5
:102D80000346C8F81440C8F81840C8F81C40C8F8F2
:102D90002040C8F82440FEF7A5FC08B1FDF7A8FDC7
:102DA000C5F83480002211462620C8F83850FEF7B6
:102DB0005FFF2620FEF750FF07B0BDE8F08FDFF879
:102DC0001481C4453ED1D9F8008048F48028C9F860
:102DD0000080D9F800C00DF104080CF4802CCDF867
:102DE00014C04FF4407CCDF800C088E80F0069465D
:102DF0005846FEF7B7FDDFF8CC80354908F1C0082A
:102E000060394046C8F80010C0E90174C0E90346C3
:102E1000C8F81440C8F81840C8F81C40C8F820404A
:102E2000C8F82440FEF75EFC08B1FDF761FDC5F867
:102E30003480002211462720C8F83850FEF718FFCA
:102E40002720B7E7244B9C45B6D1DAF8007047F04D
:102E50002007CAF80070DAF8003001AF03F0200351
:102E600005934FF48443009387E8070008200490FB
:102E700069461A48FEF776FD1148194F1838386030
:102E80008005C7E90104C7E903467C61BC61FC61B8
:102E90003C6238467C62FEF725FC08B1FDF728FD50
:102EA0006F63002205214720BD63FEF7E1FE472046
:102EB00080E7000000100140443802400004024056
:102EC00040640240A404002000440040000C024082
:102ED0008860024000480040001401400018024091
:102EE000C405002070472DE9F843044690F83900E6
:102EF0001E4617460D46202850D135B32FB394F8FF
:102F0000380001284AD0012084F838004FF000082A
:102F1000C4F83C80212084F83900FEF70FFEA78416
:102F2000E78481464FF48057E08C4B46401EE08496
:102F3000A0684FF00002B8424FF080012046009692
:102F400011D101F0EAF900BB02E00120BDE8F883ED
:102F50002888C0F3080120684160206908B16D1C11
:102F600008E0AD1C06E001F0D8F970B9216815F849
:102F7000010B4860E08C0028D6D14B46002240214E
:102F80002046009601F0C9F908B10320DEE72020B1
:102F900084F8390084F838800020D7E70220D5E78C
:102FA0007047FEE7C006010E1C2003F0FFBCC00600
:102FB000010E1B2003F0FABC0F4810B50D4901604B
:102FC0000521416000214FF400328160C0E9031205
:102FD0005201C0E905210122C0E907214162816255
:102FE000C162FDF7D1FF002803D0BDE81040FDF716
:102FF0007FBC10BD00640040CC020020104810B51A
:103000000E4901600521416000214FF04072C0E986
:1030100002124FF4003202615201C0E9052101227F
:10302000C0E9072141628162C162FDF7ADFF00285E
:1030300003D0BDE81040FDF75BBC10BD0068004048
:103040000C030020194808B5016841F480010160B3
:10305000016801F480010091016841F400110160F0
:103060000068002200F40010009005210C20FEF7FB
:10307000FFFD0C20FEF7F0FD002205211020FEF7D9
:10308000F7FD1020FEF7E8FD002205213920FEF7AC
:10309000EFFD3920FEF7E0FD002205213A20FEF782
:1030A000E7FDBDE808403A20FEF7D6BD30380240C3
:1030B00000B58FB014220F496846FDF79AF9002138
:1030C000684603F035FD0B491422143105A8FDF7BD
:1030D00090F9002105A803F02BFD064914222831A0
:1030E0000AA8FDF786F900210AA803F021FD0FB018
:1030F00000BD00002C8500082DE9F0474B4886B044
:103100000024016841F010010160016801F0100124
:103110000591016841F002010160016801F00201BE
:103120000591016841F040010160016801F0400132
:103130000591016841F008010160016801F0080192
:103140000591016841F001010160016801F0010190
:103150000591016841F480710160016801F480719A
:103160000591016841F080010160016801F0800172
:103170000591016841F0200101600068DFF8B0802E
:1031800000F020000590002288214046FEF7D0FC88
:10319000012204214046FEF7CBFCDFF898904FF463
:1031A0000056002231464846FEF7C2FCDFF888A0F0
:1031B00044F24007002239465046FEF7B9FC8C2005
:1031C00000900125CDE90154694640460394FEF77D
:1031D000C9FB022000901948CDE901056946404627
:1031E000FEF7C0FB0096CDE90154694648460394BA
:1031F000FEF7B8FB8020CDE9000469461048029430
:10320000FEF7B0FB0097CDE90154694650460394A0
:10321000FEF7A8FB0D2000900A48CDE9010469469D
:103220000948FEF79FFB06B0BDE8F0873038024042
:10323000001002400018024000140240000021105B
:10324000000C02400000111000000240104810B5B0
:103250000E4901604FF48271416000218160C160BC
:103260004FF400720161C0E905123022C0E9072164
:10327000416281620A21C162FFF732F8002803D05F
:10328000BDE81040FDF734BB10BD00000050014008
:103290004C03002010B5174888B01549016059212A
:1032A0000024C0E9011440F6C311C0E90314FFF77C
:1032B0009EFB08B1FDF71CFB602000904FF47A7074
:1032C000CDE90104002269460A480494FFF727FB70
:1032D00008B1FDF70DFB042269460648FFF71FFB06
:1032E00008B1FDF705FB0348FFF794FA08B010BDDD
:1032F000001800405007002010B521488AB04FF058
:1033000080410024C0E900148460C4600461FFF7B8
:103310006EFB08B1FDF7ECFA079407A9184808946A
:10332000FFF773F908B1FDF7E3FA6020CDE9000477
:1033300002940022694612480494FFF7F0FA08B19B
:10334000FDF7D6FA042269460D48FFF7E8FA08B1FE
:10335000FDF7CEFA082269460948FFF7E0FA08B1FE
:10336000FDF7C6FA0C2269460548FFF7D8FA08B1FE
:10337000FDF7BEFA0248FFF74DFA0AB010BD000093
:103380002406002010B51A488AB018490160B321FC
:103390000024C0E90114C4600461FFF728FB08B1F0
:1033A000FDF7A6FA079407A911480894FFF72DF92D
:1033B00008B1FDF79DFA6020CDE9000402940022D7
:1033C00069460B480494FFF7AAFA08B1FDF790FA92
:1033D000042269460648FFF7A2FA08B1FDF788FA09
:1033E0000348FFF717FA0AB010BD000000040040C0
:1033F0006006002010B521488AB01F490024C0E9AA
:1034000000148460C4600461FFF7F1FA08B1FDF7AD
:103410006FFA079407A919480894FFF7F6F808B15E
:10342000FDF766FA6020CDE90004029400226946A7
:1034300012480494FFF773FA08B1FDF759FA042211
:1034400069460E48FFF76BFA08B1FDF751FA0822FA
:1034500069460A48FFF763FA08B1FDF749FA0C22FA
:1034600069460648FFF75BFA08B1FDF741FA0348E1
:10347000FFF7D0F90AB010BD000800409C060020FC
:1034800010B524488AB02249016059210024C0E9BE
:10349000011440F6C311C0E90314FFF7A8FA08B1FC
:1034A000FDF726FA079407A91A480894FFF7ADF824
:1034B00008B1FDF71DFA602000904FF47A70CDE955
:1034C00001040022694613480494FFF728FA08B162
:1034D000FDF70EFA042269460E48FFF720FA08B1FC
:1034E000FDF706FA082269460A480194FFF717FA21
:1034F00008B1FDF7FDF90C2269460648FFF70FFAFF
:1035000008B1FDF7F5F90348FFF784F90AB010BDDB
:10351000000C0040D806002010B52B4890B0294977
:103520000024C0E900148460C46004614461FFF7B2
:103530005EFA08B1FDF7DCF90E940EA922480F944B
:10354000FFF763F808B1FDF7D3F9079408940994DD
:103550004FF400500A94CDE90B4007A91A480D9486
:10356000FFF732F808B1FDF7C3F96020CDE9000498
:103570000294039404940594002269461248069428
:10358000FFF7CDF908B1FDF7B3F9042269460E48FB
:10359000FFF7C5F908B1FDF7ABF9082269460A48FB
:1035A000FFF7BDF908B1FDF7A3F90C2269460648FB
:1035B000FFF7B5F908B1FDF79BF90348FFF72AF9C2
:1035C00010B010BD00040140140700200D4810B5D4
:1035D0000B4901600C49416000214FF48062816019
:1035E000C0E903120C22C0E90521C161FFF71AFBF3
:1035F000002803D0BDE81040FDF77AB910BD0000E7
:1036000000100140A4030020A08601000C4810B562
:103610000A4901604FF4E1314160002181600C22D0
:10362000C160C0E904128161C161FFF7FBFA0028A3
:1036300003D0BDE81040FDF75BB910BD0044004069
:10364000E40300200C4810B50A4901604FF4E13151
:103650004160002181600C22C160C0E904128161D7
:10366000C161FFF7DFFA002803D0BDE81040FDF785
:103670003FB910BD00480040240400200C4810B59C
:103680000A4901604FF4E1314160002181600C2260
:10369000C160C0E904128161C161FFF7C3FA00286B
:1036A00003D0BDE81040FDF723B910BD0014014060
:1036B000640400202DE9F05FC34CC44E2DED108B47
:1036C00094ED14EB84ED0EEB94ED16DB84ED10DB42
:1036D00094ED18CB84ED12CB3069F16AB76C81465A
:1036E00000EB010A756EAAEB07008846401B04F048
:1036F00082FC94ED088B53EC182B04F0A7FC41ECF2
:103700001A0BA8EB0900384484ED14AB401B04F0FD
:1037100072FC53EC182B04F099FC41EC190B79194D
:1037200084ED169B0AEB010004F065FC41EC1B0BD9
:103730009FEDA7FB51EC180B53EC1F2B04F0D4FAB0
:1037400053EC1B2B04F082FC41EC180B53EC1E2BAA
:1037500084ED188B51EC1A0B04F082FDC4E91A01B8
:1037600053EC1D2B51EC190B04F07AFDC4E91C013C
:1037700053EC1C2B51EC180B04F072FDDFF858824F
:10378000C4E91E01D8ED080A9FED941A80EE810A63
:1037900010EE100A04F04EFE41EC100B04F180050F
:1037A00085ED060B01F050F894ED1C1B51EC100B4D
:1037B00053EC112B04F04AFC41EC180B95ED060B71
:1037C00000F0DEFF94ED1A1B51EC100B53EC112BA3
:1037D00004F03CFC53EC182B04F042FD95ED001B6B
:1037E00053EC112B04F0D8F9C5E9000195ED060B57
:1037F00000F0C6FF94ED1C1B51EC100B53EC112B89
:1038000004F024FC41EC180B95ED060B01F01CF8BC
:1038100094ED1A1B51EC100B53EC112B04F016FC19
:1038200053EC182B04F0B8F995ED021B53EC112B57
:1038300004F0B2F941EC190B85ED029B94ED1E0BDF
:1038400053EC102B95ED040B51EC100B04F0A4F984
:1038500041EC180B85ED048B9FED61CB51EC190BFE
:1038600053EC1C2B04F0F2FB04F096FB20809FED40
:103870005EDB95ED000B53EC1D2B51EC100B04F0AF
:10388000E5FB04F089FB60809FED59EB51EC180BD0
:1038900053EC1E2B04F0DAFB9FED571B53EC112B5E
:1038A00004F022FA04F078FBA08098ED080ABDEE3F
:1038B000C00A10EE100AE080B6F900A0B6F91C901C
:1038C000B6F938700AEB090BB6F95460ABEB070098
:1038D000801B04F090FB94ED0A8B53EC182B04F042
:1038E000B5FB41EC1B0BA9EB0A00384485ED08BB86
:1038F000801B04F080FB53EC182B04F0A7FB41EC79
:10390000190BB91985ED0A9B0BEB010004F073FB51
:1039100041EC1A0B53EC1F2B51EC180B04F0E4F99B
:1039200053EC1A2B04F092FB41EC180B53EC1C2BBC
:1039300085ED0C8B51EC190B04F088FB04F02CFB8B
:10394000208153EC1D2B51EC1B0B04F07FFB04F08A
:1039500023FB608153EC1E2B51EC180B04F076FB1B
:103960009FED251B53EC112B04F0BEF904F014FB62
:10397000A0812348DFED240A90ED070ABDEEC00ABE
:1039800010EE101AE18190ED080ABDEEC00A10EEAB
:10399000100A20821B48B0F91200404200EE100AC3
:1039A000B8EEC00A80EE201ABDEEC10A10EE100A71
:1039B000A08298ED090ABDEEC00A10EE100A6082DE
:1039C000BDEC108BBDE8F09F0000002040450020BA
:1039D0000000008014AED73F9402002033336542CC
:1039E0000000000000408F400000000000408FC039
:1039F000000000000080664000000060FB2109C05C
:103A0000284C00206A4C00206F128341FEE7000022
:103A100010B504461F48844208D11F49A1F1140083
:103A200000F0DEFC072001F0DDFE2EE01B488442A2
:103A300002D102F083FC28E01948844225D11649BE
:103A40000F222331A1F10F00FCF78EFC1249143133
:103A50000878A52819D1887BFE2816D1114A10783C
:103A60005070B1F801005080B1F803009080B1F8B7
:103A70000500D080C8791070B1F90A00D060B1F9A2
:103A800008009060B1F90C0010612046BDE81040BC
:103A900003F0E2BBA4030020AC4600202404002075
:103AA00064040020EC01002070470907090E00287B
:103AB00006DA00F00F0000F1E02080F8141D7047D6
:103AC00000F1E02080F800147047000030B4034C8F
:103AD0004466034C846630BC03F058B98D6D000811
:103AE0009B6D000838B50B460092044600228021E9
:103AF00000F008F8002804D0606D40F020006065F8
:103B0000032038BD2DE9F0411D4617460E460446F8
:103B1000DDF8188035E0681C33D02DB1FEF70EF8C3
:103B2000A0EB0800A8422CD32068416821F0E001F6
:103B300041606068B0F5827F0BD1A068B0F5004F9E
:103B400002D0B0F5806F04D12068016821F04001F7
:103B50000160A06AB0F5005F0AD1206801684DF6E7
:103B6000FF72114001602068016841F4005101605A
:103B7000012084F85100002084F850000320BDE8A3
:103B8000F0812068806836EA000004D00020B84246
:103B9000C1D10020F3E70120F9E7000010B503F0E0
:103BA000D5FE044C2168884202D103F0E3FEA060F8
:103BB00010BD00006401002002F0B0BF30B52648FF
:103BC00093B00025016841F080510160006800F069
:103BD000805011902148016841F440410160006823
:103BE000022400F4404011900120009001908005D3
:103BF000CDE9064006200890B420CDE90904042050
:103C00000B906846FEF7FAF900B1FEE7FEF762F89E
:103C100000B1FEE70CA90F2081E831004FF4A0505D
:103C20000F904FF48050109005210CA8FEF798F8E3
:103C300000B1FEE7FEF772F94FF47A71B0FBF1F0D4
:103C4000FEF7ACFC0420FEF79DFC00220F21501E65
:103C5000FEF70EF813B030BD40380240007000404F
:103C60001048016841F4700101600F48016841F09B
:103C7000010101600C4A00210832116002680B4BFF
:103C80001A400260031D0A4A1A60026822F4802268
:103C9000026005480C30016002495806803908600E
:103CA0007047000088ED00E000380240FFFFF6FE9C
:103CB000103000240148FEF7F9BC0000300200205B
:103CC000F0B50268234B244D244E254F254C4FF070
:103CD000804C984209D0604507D0A84205D0B04238
:103CE00003D0B84201D0A04204D122F0700E4A683D
:103CF00042EA0E0298421BD0604519D0A84217D064
:103D0000B04215D0B84213D0A04211D0164DA842EF
:103D10000ED0164DA8420BD0154DA84208D0154D17
:103D2000A84205D0144DA84202D0144DA84203D198
:103D300022F44075CA682A4302608A68C2620A682F
:103D40008262984201D0A04201D109690163012138
:103D50004161F0BD00000140000400400008004047
:103D6000000C0040000401400040014000440140BC
:103D70000048014000180040001C004000200040A6
:103D800010B50123046A8B409C430462036A8A4095
:103D90001343036210BD000030B5026A22F0010235
:103DA0000262026A436884690D6824F07304254343
:103DB00022F002048A6822430B4CA04202D00B4C32
:103DC000A0420BD122F00804CA6823F440732243B6
:103DD0004C6922F004021C438B69234343608561D4
:103DE00049684163026230BD0000014000040140A7
:103DF00030B5026A22F010020262026A43688469E6
:103E00000D6824F4E64444EA05248D6822F020027B
:103E100042EA05120D4DA84202D00D4DA8420ED126
:103E2000CD6822F0800242EA05124D6923F4406316
:103E300043EA85038D6922F0400243EA850343602B
:103E4000846149688163026230BD00000000014066
:103E50000004014030B5026A22F480720262036AF3
:103E60004268C46923F4007324F073050C682C4382
:103E70008D6843EA05230D4DA84202D00C4DA8429F
:103E80000ED1CD6823F4006343EA05234D6922F483
:103E9000405242EA05128D6923F4806342EA05121A
:103EA0004260C4614968C163036230BD00000140E3
:103EB0000004014030B5026A22F480520262046AB2
:103EC0004268C3690D6823F4E64343EA05238D681D
:103ED00024F4005444EA0534084DA84202D0084DA9
:103EE000A84204D14D6922F4804242EA8512426020
:103EF000C36149680164046230BD000000000140F4
:103F00000004014010B5806B0021C185C184FEF71B
:103F100000FE10BD0168CA6822F49072CA60016890
:103F20004A6922F001024A61202180F83A10704764
:103F300070B5044690F83A0020281ED1D9B1D2B10C
:103F400094F83800012818D0012084F83800A162C4
:103F5000A2850025E563134626680A46311D606B7D
:103F6000FDF728FC2068416941F04001416184F877
:103F70003850002070BD012070BD022070BD10B50A
:103F800090F83A10222901D0022010BD8168B1F5C5
:103F9000805F11D00169002901681FD0496801F0D4
:103FA0007F03816A4A1C82620B70C18D491E09041D
:103FB000090CC18518D026E00269816A002A0268CE
:103FC000526805D0D2B20A80816A491C8162ECE74E
:103FD000C2F308020A80816A891CF7E74A68816A8D
:103FE0004B1C83620A70E0E70168CA6822F4907291
:103FF000CA6001684A6922F001024A61202180F802
:104000003A10FEF76FFF002010BD00002DE9F041CF
:1040100004460068016921F44052E16811430161DE
:104020002168C86849F20C6290432369A268E56977
:104030001A4363692B431A430243CA6021684869E3
:1040400020F44072A06910434861E1696425B1F52C
:10405000004F9748974A21684FF032083FD091426D
:1040600001D081427CD1FDF777FF00EBC00101EB6D
:10407000001061688900B0FBF1F6FDF76DFF00EB01
:10408000C00101EB001061688900B0FBF1F0B0FBEA
:10409000F5F06FF01801484306EB800108EB0110C2
:1040A000B0FBF5F000F0F006FDF756FF00EBC001A5
:1040B00001EB001061688900B0FBF1F0B0FBF5F096
:1040C00006EB0016FDF748FF00EBC00101EB001006
:1040D00061688900B0FBF1F7FDF73EFFD2E0914245
:1040E00001D081423DD1FDF737FF00EBC00101EB6C
:1040F000001061684900B0FBF1F0B0FBF5F006017B
:10410000FDF72AFF00EBC00101EB001061684900D8
:10411000B0FBF1F7FDF720FF00EBC00101EB001051
:1041200061684900B0FBF1F0B0FBF5F06FF01801E9
:10413000484307EB800108EBC100B0FBF5F000F04D
:10414000F80006EB4006FDF707FF00EBC00101EBAE
:10415000001061684900B0FBF1F7FDF7FDFE3CE09F
:1041600055E0FDF7E1FE00EBC00101EB00106168D6
:104170004900B0FBF1F0B0FBF5F00601FDF7D4FE0D
:1041800000EBC00101EB001061684900B0FBF1F7E2
:10419000FDF7CAFE00EBC00101EB001061684900A9
:1041A000B0FBF1F0B0FBF5F06FF01801484307EBFE
:1041B000800108EBC100B0FBF5F000F0F80006EB61
:1041C0004006FDF7B1FE00EBC00101EB0010616895
:1041D0004900B0FBF1F7FDF7A7FE00EBC00101EBD2
:1041E000001061684900B0FBF1F0B0FBF5F06FF032
:1041F0001801484307EB800108EBC100B0FBF5F064
:1042000000F00700216830448860BDE8F081FDF7C8
:104210008BFE00EBC00101EB001061688900B0FB70
:10422000F1F6FDF781FE00EBC00101EB00106168C3
:104230008900B0FBF1F0B0FBF5F06FF018014843D6
:1042400006EB800108EB0110B0FBF5F000F0F00682
:10425000FDF76AFE00EBC00101EB00106168890008
:10426000B0FBF1F0B0FBF5F006EB0016FDF75CFEDD
:1042700000EBC00101EB001061688900B0FBF1F7B1
:10428000FDF752FE00EBC00101EB001061688900F0
:10429000B0FBF1F0B0FBF5F06FF01801484307EB0D
:1042A000800108EB0110B0FBF5F000F00F00A9E76A
:1042B000001401400010014090F83910212901D06C
:1042C000022070478168B1F5805F016A0BD04A1CFB
:1042D0000262026809785160C18C491E0904090C08
:1042E000C1840ED017E009880268C1F3080151604B
:1042F00001690029016A02D0491C0162ECE7891CAE
:10430000FBE70168CA6822F08002CA600068C168E1
:1043100041F04001C160002070472DE9F04198460E
:1043200017460E460446069D1DE0681C1BD02DB1A5
:10433000FDF704FCA0EB0800A84214D92068C1686E
:1043400021F4D071C1602068416921F0010141610F
:10435000202084F8390084F83A00002084F83800DE
:104360000320BDE8F0812068006836EA000004D030
:104370000020B842D9D00020F3E70120F9E700007F
:1043800010B50448FFF744FBBDE810400148FEF7B4
:10439000C1BB0000A403002010B50448FFF738FBA0
:1043A000BDE810400148FEF7B5BB0000E403002063
:1043B00010B50448FFF72CFBBDE810400148FEF79C
:1043C000A9BB00002404002010B50448FFF720FB1F
:1043D000BDE810400148FEF79DBB000064040020CA
:1043E0000A7852B94A7842B98A7832B9CA7822B979
:1043F0000A7912B94A79002A39D00A88C2F30A0226
:10440000A2F5806202804A788B78D20842EA431291
:10441000C2F30A02A2F5806242808A78CB789209C0
:1044200042EA83020B7942EA8322C2F30A02A2F52E
:10443000806282800A794B79520842EAC312C2F341
:104440000A02A2F58062C2804A79920902724A7910
:10445000C2F301124272CA8842810A8982814A8962
:10446000C2810A7B02744A7B4274C98941827047C7
:10447000FEE7000030B50C46050014D0022C12D91E
:104480000A48A11E02882846FCF724FC2919C2B25A
:1044900011F8023C9A4206D111F8011CB1EB102F21
:1044A00001D1012030BD002030BD000020020020DD
:1044B00030B50C4605000ED0022C0CD9601E81B21E
:1044C000FF222846FCF71CFC291911F8011C814227
:1044D00001D1012030BD002030BD03B4019841005E
:1044E000009850EAC12018BF04204A0D18BF40F0C0
:1044F000010040F2FF72B2EB515F08BF40F00200D2
:10450000012808BF052002B070474100080218BF0B
:1045100004200A0E18BF40F001004FF07F4232EA3B
:10452000010108BF40F00200012808BF05207047C4
:1045300010EE100A10B510EE901A4FF0684202EB20
:1045400040032DED028BB3F1654F3CBF02EB4102FE
:10455000B2F1654F7CD200BFC0F3C753C1F3C7525D
:104560009A1A1B2A09DD10F0004F14BF9FED6E0A46
:104570009FED6E0ABDEC028B10BD12F11A0F1BDA13
:1045800011F0004F09D010F0004F0CBF9FED680AEA
:104590009FED680ABDEC028B10BD80EE208A18EEFC
:1045A000100AFFF7B2FF042808BF00F0C9FDB0EE03
:1045B000480ABDEC028B10BD4200B2EB410F37D967
:1045C00010F0004F19BFDFED5C1A9FED5C1ADFEDB4
:1045D0005C1A9FED5C1AB0EE602A0A46F1EE400AC2
:1045E00080F00041B0EE420A10460A1A5200B2F1C1
:1045F000807F34D2484010F0004FDFED532A9FED0A
:10460000533A1DBFBEEE002A71EEE21A31EE431A94
:10461000B6EE002A04BF71EEA21A31EE031AF0EED4
:10462000402A42EE602A40EE020A82EEA02A18E0FA
:1046300011F0004F04BF9FED461AF0EE411AD4D09E
:1046400010F0004F1CBFDFED431A9FED431A00E04E
:1046500026E004BFDFED411A9FED411AC5E780EE69
:10466000202A22EE020ADFED3F0ADFED3F2ABDECF1
:10467000028B40EE202ADFED3D0A40EE220ADFEDFC
:104680003C2A40EE202ADFED3B0A40EE220A22EED1
:10469000000A00EE201A31EE020A30EE210A10BDA7
:1046A0004FF07F42B2EB400F28BFB2EB410F05D273
:1046B000BDEC028BBDE8104000F03EBD40EA0103B6
:1046C0005B0008BF41F0FF410BD0B2EB400F08BFC9
:1046D000B2EB410F08D120F0804000EE100A21F02B
:1046E000804100EE901A37E7B2EB400F12BF5FEA4D
:1046F000410240F0FF4001F000413FF42DAF4A007D
:1047000092EA40033FF528AF002AACBF9FED1A1A8A
:104710009FED1A1A20EE010A60EE810A10EE100ACF
:1047200010EE901A18E70000DB0FC9BFDB0FC93F7E
:10473000DB0F4940DB0F49C00000C9BF22AAFDB909
:104740000000C93F22AAFD390060ED3EC30ACE3702
:1047500000000000000049C022AA7DBA00004940C4
:1047600022AA7D3A2DAD65BD8FB8D53D0FB511BEDE
:1047700061C84C3EA8AAAABE0000804F0000802F4E
:1047800010B52F499FED2C1B2DED020B84B0059821
:1047900020F000408842D8BF9DED040B2DDD294953
:1047A000884209D1049840B94FF00100FBF763FE3D
:1047B00000F0A2FC06B010BD05DB9DED040B00F07F
:1047C0008FFC06B010BD68469DED040B00F0A0F80C
:1047D00010F0030004BF9DED021B9DED000B0CD0FB
:1047E00001280ED09DED021B9DED000B022817D075
:1047F000012000F0DDFB06B010BD00F0A5FA06B008
:1048000010BD9DED021B9DED000B012000F0D0FBC3
:1048100051EC100B03F082F906B041EC100B10BD07
:1048200000F092FA51EC100B03F078F906B041EC6D
:10483000100B10BD00000000000000000000000090
:10484000FB21E93F0000F07F10B52F499FED2C1BA5
:104850002DED020B84B0059820F000408842DCBFAB
:1048600000209DED040B32DD2849884209D10498CF
:1048700040B94FF00100FBF7FEFD00F03DFC06B033
:1048800010BD05DB9DED040B00F02AFC06B010BD49
:1048900068469DED040B00F03BF810F0030011D0CA
:1048A000012818D09DED021B9DED000B02281AD0A7
:1048B00000F04AFA51EC100B03F030F906B041EC6D
:1048C000100B10BD9DED021B9DED000B012000F0B3
:1048D0006FFB06B010BD9DED021B9DED000B00F0BF
:1048E00033FA06B010BD012000F062FB51EC100B52
:1048F00003F014F906B041EC100B10BD00000000ED
:104900000000000000000000FB21E93F0000F07FF4
:104910002DE9F14F04462DED020B2DED088B8AB0E9
:104920009FEDE70B80ED020B139EE74826F0004554
:1049300085420ADC9DED120B002084ED000B0AB0CD
:10494000BDEC088B03B0BDE8F08FE0489FEDE0AB15
:104950009FEDE1BBA84247DDE14F9FEDE39B9FED5B
:10496000E48B9DED120B53EC1A2B51EC100B002E27
:104970001CDD03F075FC41EC100BBD4208D053EC7C
:104980001B2B51EC100B03F06BFCC4E900010BE096
:1049900053EC192B51EC100B03F062FC53EC182B69
:1049A00003F05EFCC4E900010120C8E703F0F4F85D
:1049B00041EC100BBD4208D053EC1B2B51EC100BFB
:1049C00003F0EAF8C4E900010BE053EC192B51ECB9
:1049D000100B03F0E1F853EC182B03F0DDF8C4E9F9
:1049E00000014FF0FF30AAE7C348A84279DB9DEDF4
:1049F000120B51EC100B00F005FF41EC180B9FED72
:104A0000C00B53EC102B03F021FB9FEDBF1B53ECAD
:104A1000112B03F0C1F803F0BFFA074603F0EBFADD
:104A200041EC190B53EC1A2B03F010FB53EC182B31
:104A300003F00AFC41EC180B53EC1B2B51EC190B47
:104A400003F004FBDFF8C8A241EC100B4FEA155845
:104A50000125FA4453EC102B51EC180B03F000FC29
:104A6000032DC4E900013DD0C1F30A5005EB451107
:104A7000A8EB00001139814234DA0AEB051BB0EED5
:104A800048AA9BED000BF0EE68AA53EC102B51ECFA
:104A9000190B03F0DBFA41EC1B0B51EC1A0B53EC36
:104AA0001B2B03F0DDFB41EC180B51EC1A0B53EC04
:104AB000182B03F0D5FB53EC1B2B03F0D1FB9BED24
:104AC000020B41EC1A0B53EC102B51EC190B03F0B9
:104AD000BDFA53EC1A2B03F0C3FB41EC100B6D1C19
:104AE000B8E70EE0002EA8BF3846BFF628AF94ED19
:104AF000000B51EC100B03F011F8C4E900017842EF
:104B00001DE7C6F3130040F4801EC6F30A50A0F25E
:104B1000F530471100F01F05C5F12000DDF848B061
:104B200008900020069007900520EC467949002D5A
:104B300007EB0002794408BF51F8221009D051F860
:104B4000223001EB8201AB404A68089922FA01F158
:104B50001943A1FB0E26A1FB0B131A449A4234BF42
:104B60000123002303EB06080CEB8003D3E901A625
:104B70000E448E4234BF0121002192448A4411B177
:104B8000924502D903E0924501D2012100E00021C3
:104B9000C3E901A641444CF82010011EA0F1010018
:104BA000C4DC029800F10050850F0298DDE903672C
:104BB0008000DDF8148003F01EFA41EC1A0B304639
:104BC00003F030FA9FED541B53EC112B03F03EFA27
:104BD00041EC1B0B384603F025FA9FED511B53ECBB
:104BE000112B03F033FA41EC180B404603F01AFA8C
:104BF0009FED4D1B53EC112B03F028FA41EC190BE0
:104C000051EC180B53EC192B02F0C6FF53EC1B2B85
:104C100002F0C2FF53EC1A2B02F0BEFFCDE90801EF
:104C2000002008909DED080B53EC1A2B51EC100B53
:104C300003F016FB53EC1B2B03F012FB53EC182B69
:104C400003F00EFB53EC192B03F0FEFA9FED381B1B
:104C500053EC112B03F0FAF99FED370B41EC180BD5
:104C600053EC102B9DED080B51EC100B03F0EEF9FB
:104C700053EC182B02F090FF9FED310B41EC180B19
:104C800053EC102B9DED080B51EC100B03F0DEF9EB
:104C900053EC182B02F080FF41EC100B139810F02E
:104CA000004F06D06D4251EC100B02F037FF41EC83
:104CB000100B284684ED000B41E6000000000000C8
:104CC0000000000000000000FB21E93F7CD9024009
:104CD00000004054FB21F93F3163621A61B4D03DBA
:104CE000FB21F93F000000000000601A61B4D03DD4
:104CF0007370032E8A19A33BFB2139410000000089
:104D000083C8C96D305FE43F000000000000E03F51
:104D1000723E0000C03D0000000000000000103E98
:104D2000000000000000103C000000000000103AED
:104D3000182D4454FB21F93D3326A611460B113C96
:104D400000000054FB21F93D10B52DED040B2DEDB5
:104D5000088B82B0B0EE419AF0EE619A0B9820F089
:104D600000449FED4BABB4F1795F11DA9DED0A0B76
:104D700051EC100B03F010F9002801BFB0EE4A0A05
:104D8000F0EE6A0A02B0BDEC088B04BF04B010BD9F
:104D90009DED0A0B53EC102B51EC100B03F056F960
:104DA00041EC180B3C480621B0EE480AF0EE680AC8
:104DB000784400F081F853EC182B51EC100B03F001
:104DC00045F99DED0A0B41EC1B0B53EC192B51ECF3
:104DD000100B03F03BF941EC190B53EC1B2B51EC7E
:104DE000180B03F033F953EC192B03F039FA9FED4C
:104DF0002C0B41EC190B53EC102B51EC180B03F05E
:104E000025F941EC100B2848844210DA53EC192B99
:104E100051EC100B03F024FA53EC1A2B03F014FAA4
:104E200041EC100B02B0BDEC088B04B010BD1F4864
:104E3000A042BCBF9FED1E1B8DED001B06DBA4F541
:104E400000100190002000909DED001B51EC100B14
:104E500053EC112B03F004FA9DED000B41EC180B01
:104E600053EC102B51EC1A0B03F0FAF941EC1A0B2E
:104E700053EC192B51EC180B03F0F2F953EC1A2BED
:104E800003F0E2F941EC100BCCE700000000000059
:104E9000000000000000F03FE43A000000000000C5
:104EA000000000000000E03F3333D33F0000E93F43
:104EB000000000000000D23F70B504462DED028BCB
:104EC0004D1E00EBC500B0EE408AF0EE608A90ED1A
:104ED000000B35F0060017D053EC182B51EC100BDB
:104EE00003F0B4F841EC100B6D1E04EBC50090ED1F
:104EF000001B51EC100B53EC112B02F04DFE41EC5A
:104F0000100B35F00600E7D1022D36D0042D1CD051
:104F1000062D1CBFBDEC028B70BD53EC182B51EC61
:104F2000100B03F093F894ED0A1B53EC112B02F0D5
:104F300033FE53EC182B03F089F894ED081B53EC67
:104F4000112B02F029FE41EC100B53EC182B51EC05
:104F5000100B03F07BF894ED061B53EC112B02F0C1
:104F60001BFE53EC182B03F071F894ED040B53EC7B
:104F7000102B02F011FE41EC100B53EC182B51ECEE
:104F8000100B03F063F894ED021B53EC112B02F0AD
:104F900003FE53EC182B03F059F894ED001B53EC6F
:104FA000112B02F0F9FDBDEC028B41EC100B70BD32
:104FB00031B504462DED040B2DED0A8BB0EE41BA50
:104FC000F0EE61BA0B989DED0A0B20F00040B0F1B5
:104FD000795F0DDA51EC100BFFF77FFA042808BF58
:104FE00000F09AF89DED0A0BBDEC0A8B05B030BDC0
:104FF00053EC102B51EC100B03F028F841EC180B7C
:105000009DED0A0B53EC182B51EC100B03F01EF81E
:1050100041EC190B2C48B0EE480AF0EE680A052165
:105020007844FFF749FF9FED2ACBB0EE40AAF0EE9F
:1050300060AA9CB353EC1C2B51EC190B03F006F83F
:1050400041EC1C0B53EC1A2B51EC190B02F0FEFF38
:105050009FED210B41EC190B53EC102B51EC1B0B6A
:1050600002F0F4FF53EC192B03F0FAF853EC182B71
:1050700002F0ECFF53EC1B2B03F0F2F853EC1C2B6B
:1050800003F0EEF89DED0A1B53EC112B03F0DCF856
:10509000BDEC0A8B05B041EC100B30BDFFE753ECC3
:1050A0001A2B51EC180B02F0D1FF53EC1C2B02F021
:1050B00073FD53EC192B02F0C9FF9DED0A1B53EC55
:1050C000112B02F069FDE3E76C39000000000000DD
:1050D000495555555555C5BF000000000000E03F3B
:1050E00010B553EC102B51EC100B02F055FD41ECB8
:1050F000100B10BD000000009FED050B10B553EC28
:10510000102B51EC100B02F0EFFD41EC100B10BD19
:1051100000000000000000009FED050B10B553ECEF
:10512000102B51EC100B02F091FF41EC100B10BD55
:10513000000000000000001030EE200A7047000060
:105140009FED020A20EE000A7047000000000010E8
:10515000D0ED000AF4EEC00AF1EE10FA01DD80EDA8
:10516000000AD0ED000AB1EE400AF4EEC00AF1EEFA
:1051700010FA01D280ED000A704700002DE9F05FBF
:105180007F484FF0010A2DED088BC1797D489FEDD6
:105190007E8B7F4A7F4D0068176895ED009A4FF02F
:1051A0000008A5F18004012908D002297ED07A48A0
:1051B000C4F834800078012879D0CEE0616C934641
:1051C0007E18E664A16C0844814620657348006837
:1051D00002F011FF53EC182B02F086FD41EC180B86
:1051E00085ED068B9FED6E0B53EC102B02F02EFF1E
:1051F00053EC182B02F02AFF53EC182B02F026FF79
:1052000041EC1B0B9FED680B51EC180B53EC102B72
:1052100002F01CFF53EC182B02F018FF41EC1A0BA4
:105220009FED630B51EC180B53EC102B02F00EFFAB
:105230009FED611B53EC112B03F006F853EC1A2B76
:1052400002F0AAFC53EC1B2B03F00AF802F0A4FEB8
:1052500000EE109AA06494ED191AF8EEC00A5849AD
:1052600080EE810AD4ED1F0A30EE200A10EE100AFB
:1052700084ED150A884202D3BAEE0E0A06E010EE5B
:10528000100A5049884203DBB3EE010A84ED150A87
:105290003F1D84ED170A092F01D2CBF8008000EEE4
:1052A000106A94ED1A1AF8EEC00A01E025E051E008
:1052B00080EE810A444930EE090A10EE100A84EDAE
:1052C000160A884202D39FED410A06E010EE100A4A
:1052D0003F49884203DB9FED3F0A84ED160A0E36F4
:1052E00084ED180A1D2E05D2C4F834A0BDEC088B3D
:1052F000BDE8F09FC4F83480F8E702F07CFE9FED33
:1053000036AB53EC1A2B02F0A1FE53EC182B02F033
:10531000EBFC02F00FFC6065384602F06CFE53ECCB
:105320001A2B02F093FE53EC182B02F0DDFC02F076
:1053300001FC00EE100A84ED160A39EE400A10EE68
:10534000100AB0F1404FD5D210EE100AB0F1804FE4
:10535000D0DAC9E7FCF7F2FB2861206C9FED208AC8
:10536000012801D184ED168AFCF7E8FB2969401A6F
:10537000B0F5FA6FBAD984ED168A84ED158AB5E7CF
:10538000C0460020F80100200000000000408F40CF
:10539000F401002040010020ED010020FC0100206C
:1053A00066F7E461A1D6DC3FD49AE61DA7681740F2
:1053B000DBF97E6ABC5C4240FB5C6DC5FEC23540D9
:1053C000000070C100008841000070C2000070C27F
:1053D00000007042000070426666666666A64C4039
:1053E0000000000010B54FF4FA642DED028B32235B
:1053F0009FED1B8ADFED1B8A9FED1B0AB0EE481A5A
:10540000F0EE680A224603211848FEF75FFBB0EE73
:10541000481ADFED170A9FED170A234641F288323A
:1054200003211548FEF752FBB0EE481AF0EE680A69
:10543000B3EE0E0A0523224603211048FEF746FB71
:10544000B0EE481AA200BDEC028B2346BDE8104026
:10545000DFED0B0A9FED0B0A03210B48FEF736BB6D
:1054600000000000CDCC4C3E000048421847002010
:105470009A99193F000020425C4800208447002090
:10548000CDCCCC3D00007042F0470020F0B4134B6F
:1054900040F2FF141D6B2C601D6B0024AC601D6B73
:1054A000EC601E6B082535611E6B050A35751D6B9A
:1054B00068751D6B080AA875186BC175196B100A01
:1054C0000876186B4FF47A714276186B8476186BF5
:1054D000C476F0BC1846FBF753BF0000CC02002096
:1054E0002DE9F0411B4D00242DED028B4FF47A760F
:1054F0009FED198A42F2107704EBC40000EB4000E4
:1055000005EB8000B1EE041AF0EE480AB1EE000A95
:1055100033463A460321FEF7D9FA641C042CEBDB30
:10552000B7EE000ADFED0D0A50234FF41672B0EE0D
:10553000601A03210A48FEF7C9FA09489FED090AD3
:1055400080ED140A9FED080A80ED150ABDEC028B70
:10555000BDE8F081C8480020CDCC4C3D00000000E3
:10556000784A002000A0AA4400000C422DED028BD6
:1055700082B0FFF7B5FF4FF47A70FCF73EF9574D54
:10558000DFF854B1DFF8588105F130009FED558AFE
:10559000564E554F4FF0000AA6F13009CDF80400E1
:1055A00001F0E2FA524800F049F9287EE0B1032800
:1055B00013D0042802D0052813D109E0D5ED070A3D
:1055C00095ED080A4B4801F0FFFAB1EE400A1FE0E2
:1055D0009BF8000003280FD003E09BF8000002288E
:1055E00018D185ED028A15E04348C079012811D110
:1055F0004248006801280DD14148F0EE480AB0F950
:10560000000000EE100A3B48B8EEC00A01F0DCFAD8
:1056100085ED020AE86A08B185ED028A4FF4FA6066
:1056200095EC030A019900F04DFF002405EB4400BE
:10563000C4EBC401B0F9300000EB8000400000EE84
:10564000100A38F92100F8EEC00A00EE100A04EB47
:10565000C40000EB4000B8EEC00A07EB800001F088
:10566000B3FABDEEC00A10EE100A26F81400641C4E
:10567000042CDBDB287E022803D02248C06DC00743
:105680000BD0C9F830A0C9F834A087ED0D8A87ED9A
:10569000288A87ED438A87ED5E8AB6F90600009076
:1056A000B6F90430B6F90220B6F90010164801F038
:1056B0006DFDD9F818004C46401CC9F818000228A6
:1056C00005DBFDF7F7FF01F01DFDC4F818A00A2067
:1056D00001F018FA64E700008C0700209402002013
:1056E0004045002000000000C84800203000002095
:1056F00098460020784A0020C04600200001002083
:10570000C20000209C070020CC020020074882B085
:105710000068016841680091C16841F01001C160F2
:1057200014220349014802B0FEF702BCA403002082
:10573000AC46002000F03CFC642001F0E3F9DFF807
:105740009880264C4FF48049DFF894A0FCF7F6F9D6
:1057500000273E463D46C8F8000000BFFCF7EEF9C2
:1057600005EB450104EB81014A68821A886862F3FF
:10577000172088608868800716D58868CA68C0F3D3
:105780000F2092B290420FD9886840F001008860E3
:105790008868761CC0F38500B84209DD8868091D59
:1057A000C0F38507216003E0886820F0010088606D
:1057B0006D1C0C2DD2DB1EB1206818B1012202E055
:1057C00000202060002249465046FCF7B1F9322003
:1057D00001F098F9BAE70000600100209C07002062
:1057E0000014024000EB400110B5054800EB8104B5
:1057F000A068800702D5FCF7A1F9606010BD000029
:105800009C07002082B0CDE9000121F0004001900A
:105810009DED000B02B051EC100B70470548817AEA
:10582000552906D1044930F9052F0A63B0F9020061
:10583000C8627047984C0020C000002070B5794CB9
:105840002DED048B217E6176017A012904D0022995
:1058500026D0032902D100E000212176227E0AB35E
:105860007149032A91EC020A7DD0042A7CD0052AD2
:1058700013D1B0F9021001EE101AB8EEC11A71EE90
:10588000200AC4ED010AB0F9000000EE900AF8EE1B
:10589000E00A30EE800A84ED000ABDEC048B70BD96
:1058A0000521DAE76148B0F9000002F0A4FB41EC01
:1058B000180B9FED5F0B604853EC102B90ED0A0B1B
:1058C00051EC100B02F0C2FB0E4646EC100B0546E5
:1058D00053EC102B9FED590B51EC100B02F004FA16
:1058E00053EC182B02F0B2FB9FED569B53EC192B97
:1058F00002F0FAF902F01EF960605448B0F90000B5
:1059000002F079FB46EC105B41EC180B53EC102BCA
:105910009FED4F0B51EC100B02F0E6F953EC182BF6
:1059200002F094FB53EC192B02F0DEF902F002F9BD
:1059300020604948B0F9000002F05DFB46EC105BC6
:1059400041EC180B53EC102B9FED440B51EC100B5A
:1059500002F0CAF953EC182B02F078FB9FED411BC3
:1059600053EC112B01E012E037E002F0BDF99FED9E
:105970003F1B53EC112B02F069FB9FED3E1B53ECD8
:10598000112B02F0B1F902F0D5F8A06085E7B0F96B
:10599000021001EE101AB8EEC11A71EE200AC4ED21
:1059A000010AB0F9001000EE901AF8EEE00A30EEAD
:1059B000800A84ED000AB0F90410B0F90A0001EB86
:1059C000D171491000EB800001EB400000EE100A9D
:1059D000B8EEC00A84ED020A5FE7B0F9021001EEEA
:1059E000101AB8EEC11A71EE200A9FED241AC4ED08
:1059F000010AB0F9001000EE901AF8EEE00A30EE5D
:105A0000800A84ED000AB0F9040094ED070A4042D0
:105A100000EE900AF8EEE00A00EE810A84ED070A33
:105A20003BE700009402002004470020EE01002024
:105A300000000000000010400000002000000000F6
:105A40000000F03F000000000088C340F00100208B
:105A5000000000000000F0BFF20100200000008004
:105A600014AED7BF00000000008066400000006058
:105A7000FB21094000000000000024406F12833A1F
:105A80004A6B6FF00403D28A52BA02804A6B128BBF
:105A900052BA12B292FBF3F242804A6B927E0271CA
:105AA000038B4383496B898A4ABA0283D31A81687C
:105AB000B3F5805F01DD491E03E013F5805F01DA75
:105AC000491C816002EB4131C288891A4FF4B472DB
:105AD000C1605143CA1701EBD241491301617047BC
